{
  "contractName": "Voting",
  "abi": [
    {
      "inputs": [
        {
          "internalType": "string[]",
          "name": "candidateNames",
          "type": "string[]"
        }
      ],
      "stateMutability": "nonpayable",
      "type": "constructor"
    },
    {
      "inputs": [
        {
          "internalType": "uint256",
          "name": "",
          "type": "uint256"
        }
      ],
      "name": "candidates",
      "outputs": [
        {
          "internalType": "string",
          "name": "name",
          "type": "string"
        },
        {
          "internalType": "uint256",
          "name": "voteCount",
          "type": "uint256"
        }
      ],
      "stateMutability": "view",
      "type": "function",
      "constant": true
    },
    {
      "inputs": [],
      "name": "owner",
      "outputs": [
        {
          "internalType": "address",
          "name": "",
          "type": "address"
        }
      ],
      "stateMutability": "view",
      "type": "function",
      "constant": true
    },
    {
      "inputs": [
        {
          "internalType": "address",
          "name": "",
          "type": "address"
        }
      ],
      "name": "voters",
      "outputs": [
        {
          "internalType": "bool",
          "name": "isRegistered",
          "type": "bool"
        },
        {
          "internalType": "bool",
          "name": "hasVoted",
          "type": "bool"
        },
        {
          "internalType": "uint8",
          "name": "vote",
          "type": "uint8"
        }
      ],
      "stateMutability": "view",
      "type": "function",
      "constant": true
    },
    {
      "inputs": [],
      "name": "votingEnded",
      "outputs": [
        {
          "internalType": "bool",
          "name": "",
          "type": "bool"
        }
      ],
      "stateMutability": "view",
      "type": "function",
      "constant": true
    },
    {
      "inputs": [],
      "name": "getCandidateCount",
      "outputs": [
        {
          "internalType": "uint256",
          "name": "",
          "type": "uint256"
        }
      ],
      "stateMutability": "view",
      "type": "function",
      "constant": true
    },
    {
      "inputs": [
        {
          "internalType": "address",
          "name": "voter",
          "type": "address"
        }
      ],
      "name": "registerVoter",
      "outputs": [],
      "stateMutability": "nonpayable",
      "type": "function"
    },
    {
      "inputs": [
        {
          "internalType": "uint8",
          "name": "candidateIndex",
          "type": "uint8"
        }
      ],
      "name": "vote",
      "outputs": [],
      "stateMutability": "nonpayable",
      "type": "function"
    },
    {
      "inputs": [],
      "name": "endVoting",
      "outputs": [],
      "stateMutability": "nonpayable",
      "type": "function"
    },
    {
      "inputs": [
        {
          "internalType": "uint8",
          "name": "index",
          "type": "uint8"
        }
      ],
      "name": "getCandidate",
      "outputs": [
        {
          "internalType": "string",
          "name": "name",
          "type": "string"
        },
        {
          "internalType": "uint256",
          "name": "voteCount",
          "type": "uint256"
        }
      ],
      "stateMutability": "view",
      "type": "function",
      "constant": true
    },
    {
      "inputs": [],
      "name": "getWinner",
      "outputs": [
        {
          "internalType": "string",
          "name": "winnerName",
          "type": "string"
        },
        {
          "internalType": "uint256",
          "name": "winnerVoteCount",
          "type": "uint256"
        }
      ],
      "stateMutability": "view",
      "type": "function",
      "constant": true
    }
  ],
  "bytecode": "0x60806040523480156200001157600080fd5b506040516200163738038062001637833981810160405281019062000037919062000303565b336000806101000a81548173ffffffffffffffffffffffffffffffffffffffff021916908373ffffffffffffffffffffffffffffffffffffffff16021790555060005b8151811015620001475760026040518060400160405280848481518110620000cb577f4e487b7100000000000000000000000000000000000000000000000000000000600052603260045260246000fd5b60200260200101518152602001600081525090806001815401808255809150506001900390600052602060002090600202016000909190919091506000820151816000019080519060200190620001249291906200014f565b5060208201518160010155505080806200013e9062000454565b9150506200007a565b50506200052f565b8280546200015d906200041e565b90600052602060002090601f016020900481019282620001815760008555620001cd565b82601f106200019c57805160ff1916838001178555620001cd565b82800160010185558215620001cd579182015b82811115620001cc578251825591602001919060010190620001af565b5b509050620001dc9190620001e0565b5090565b5b80821115620001fb576000816000905550600101620001e1565b5090565b60006200021662000210846200037c565b62000348565b9050808382526020820190508260005b858110156200025a57815185016200023f8882620002d6565b84526020840193506020830192505060018101905062000226565b5050509392505050565b60006200027b6200027584620003ab565b62000348565b9050828152602081018484840111156200029457600080fd5b620002a1848285620003e8565b509392505050565b600082601f830112620002bb57600080fd5b8151620002cd848260208601620001ff565b91505092915050565b600082601f830112620002e857600080fd5b8151620002fa84826020860162000264565b91505092915050565b6000602082840312156200031657600080fd5b600082015167ffffffffffffffff8111156200033157600080fd5b6200033f84828501620002a9565b91505092915050565b6000604051905081810181811067ffffffffffffffff8211171562000372576200037162000500565b5b8060405250919050565b600067ffffffffffffffff8211156200039a576200039962000500565b5b602082029050602081019050919050565b600067ffffffffffffffff821115620003c957620003c862000500565b5b601f19601f8301169050602081019050919050565b6000819050919050565b60005b8381101562000408578082015181840152602081019050620003eb565b8381111562000418576000848401525b50505050565b600060028204905060018216806200043757607f821691505b602082108114156200044e576200044d620004d1565b5b50919050565b60006200046182620003de565b91507fffffffffffffffffffffffffffffffffffffffffffffffffffffffffffffffff821415620004975762000496620004a2565b5b600182019050919050565b7f4e487b7100000000000000000000000000000000000000000000000000000000600052601160045260246000fd5b7f4e487b7100000000000000000000000000000000000000000000000000000000600052602260045260246000fd5b7f4e487b7100000000000000000000000000000000000000000000000000000000600052604160045260246000fd5b6110f8806200053f6000396000f3fe608060405234801561001057600080fd5b506004361061009e5760003560e01c80639d5a0529116100665780639d5a05291461014b578063a3ec138d14610169578063b3f98adc1461019b578063c3403ddf146101b7578063cde9370f146101c15761009e565b806330a56347146100a35780633477ee2e146100c157806338db6dd3146100f25780638da5cb5b1461010e5780638e7ea5b21461012c575b600080fd5b6100ab6101f2565b6040516100b89190610e9d565b60405180910390f35b6100db60048036038101906100d69190610ad3565b6101ff565b6040516100e9929190610dad565b60405180910390f35b61010c60048036038101906101079190610aaa565b6102bb565b005b610116610318565b6040516101239190610d40565b60405180910390f35b61013461033c565b604051610142929190610dad565b60405180910390f35b610153610549565b6040516101609190610d5b565b60405180910390f35b610183600480360381019061017e9190610aaa565b61055c565b60405161019293929190610d76565b60405180910390f35b6101b560048036038101906101b09190610afc565b6105ad565b005b6101bf610884565b005b6101db60048036038101906101d69190610afc565b61092f565b6040516101e9929190610dad565b60405180910390f35b6000600280549050905090565b6002818154811061020f57600080fd5b906000526020600020906002020160009150905080600001805461023290610fb2565b80601f016020809104026020016040519081016040528092919081815260200182805461025e90610fb2565b80156102ab5780601f10610280576101008083540402835291602001916102ab565b820191906000526020600020905b81548152906001019060200180831161028e57829003601f168201915b5050505050908060010154905082565b60018060008373ffffffffffffffffffffffffffffffffffffffff1673ffffffffffffffffffffffffffffffffffffffff16815260200190815260200160002060000160006101000a81548160ff02191690831515021790555050565b60008054906101000a900473ffffffffffffffffffffffffffffffffffffffff1681565b60606000600360009054906101000a900460ff1661038f576040517f08c379a000000000000000000000000000000000000000000000000000000000815260040161038690610ddd565b60405180910390fd5b60008060005b6002805490508160ff161015610463578260028260ff16815481106103e3577f4e487b7100000000000000000000000000000000000000000000000000000000600052603260045260246000fd5b90600052602060002090600202016001015411156104505760028160ff1681548110610438577f4e487b7100000000000000000000000000000000000000000000000000000000600052603260045260246000fd5b90600052602060002090600202016001015492508091505b808061045b90610fe4565b915050610395565b5060028160ff16815481106104a1577f4e487b7100000000000000000000000000000000000000000000000000000000600052603260045260246000fd5b9060005260206000209060020201600001828180546104bf90610fb2565b80601f01602080910402602001604051908101604052809291908181526020018280546104eb90610fb2565b80156105385780601f1061050d57610100808354040283529160200191610538565b820191906000526020600020905b81548152906001019060200180831161051b57829003601f168201915b505050505091509350935050509091565b600360009054906101000a900460ff1681565b60016020528060005260406000206000915090508060000160009054906101000a900460ff16908060000160019054906101000a900460ff16908060000160029054906101000a900460ff16905083565b600160003373ffffffffffffffffffffffffffffffffffffffff1673ffffffffffffffffffffffffffffffffffffffff16815260200190815260200160002060000160009054906101000a900460ff1661063c576040517f08c379a000000000000000000000000000000000000000000000000000000000815260040161063390610e1d565b60405180910390fd5b600160003373ffffffffffffffffffffffffffffffffffffffff1673ffffffffffffffffffffffffffffffffffffffff16815260200190815260200160002060000160019054906101000a900460ff16156106cc576040517f08c379a00000000000000000000000000000000000000000000000000000000081526004016106c390610e7d565b60405180910390fd5b600360009054906101000a900460ff161561071c576040517f08c379a000000000000000000000000000000000000000000000000000000000815260040161071390610e3d565b60405180910390fd5b6002805490508160ff1610610766576040517f08c379a000000000000000000000000000000000000000000000000000000000815260040161075d90610e5d565b60405180910390fd5b60018060003373ffffffffffffffffffffffffffffffffffffffff1673ffffffffffffffffffffffffffffffffffffffff16815260200190815260200160002060000160016101000a81548160ff02191690831515021790555080600160003373ffffffffffffffffffffffffffffffffffffffff1673ffffffffffffffffffffffffffffffffffffffff16815260200190815260200160002060000160026101000a81548160ff021916908360ff160217905550600160028260ff168154811061085a577f4e487b7100000000000000000000000000000000000000000000000000000000600052603260045260246000fd5b9060005260206000209060020201600101600082825461087a9190610ed4565b9250508190555050565b60008054906101000a900473ffffffffffffffffffffffffffffffffffffffff1673ffffffffffffffffffffffffffffffffffffffff163373ffffffffffffffffffffffffffffffffffffffff1614610912576040517f08c379a000000000000000000000000000000000000000000000000000000000815260040161090990610dfd565b60405180910390fd5b6001600360006101000a81548160ff021916908315150217905550565b606060006002805490508360ff161061097d576040517f08c379a000000000000000000000000000000000000000000000000000000000815260040161097490610e5d565b60405180910390fd5b600060028460ff16815481106109bc577f4e487b7100000000000000000000000000000000000000000000000000000000600052603260045260246000fd5b906000526020600020906002020190508060000181600101548180546109e190610fb2565b80601f0160208091040260200160405190810160405280929190818152602001828054610a0d90610fb2565b8015610a5a5780601f10610a2f57610100808354040283529160200191610a5a565b820191906000526020600020905b815481529060010190602001808311610a3d57829003601f168201915b505050505091509250925050915091565b600081359050610a7a8161107d565b92915050565b600081359050610a8f81611094565b92915050565b600081359050610aa4816110ab565b92915050565b600060208284031215610abc57600080fd5b6000610aca84828501610a6b565b91505092915050565b600060208284031215610ae557600080fd5b6000610af384828501610a80565b91505092915050565b600060208284031215610b0e57600080fd5b6000610b1c84828501610a95565b91505092915050565b610b2e81610f2a565b82525050565b610b3d81610f3c565b82525050565b6000610b4e82610eb8565b610b588185610ec3565b9350610b68818560208601610f7f565b610b718161106c565b840191505092915050565b6000610b89601783610ec3565b91507f566f74696e67206973207374696c6c206f6e676f696e670000000000000000006000830152602082019050919050565b6000610bc9602183610ec3565b91507f4f6e6c79206f776e65722063616e2063616c6c20746869732066756e6374696f60008301527f6e000000000000000000000000000000000000000000000000000000000000006020830152604082019050919050565b6000610c2f601e83610ec3565b91507f596f7520617265206e6f74207265676973746572656420746f20766f746500006000830152602082019050919050565b6000610c6f601083610ec3565b91507f566f74696e672068617320656e646564000000000000000000000000000000006000830152602082019050919050565b6000610caf601783610ec3565b91507f496e76616c69642063616e64696461746520696e6465780000000000000000006000830152602082019050919050565b6000610cef601683610ec3565b91507f596f75206861766520616c726561647920766f746564000000000000000000006000830152602082019050919050565b610d2b81610f68565b82525050565b610d3a81610f72565b82525050565b6000602082019050610d556000830184610b25565b92915050565b6000602082019050610d706000830184610b34565b92915050565b6000606082019050610d8b6000830186610b34565b610d986020830185610b34565b610da56040830184610d31565b949350505050565b60006040820190508181036000830152610dc78185610b43565b9050610dd66020830184610d22565b9392505050565b60006020820190508181036000830152610df681610b7c565b9050919050565b60006020820190508181036000830152610e1681610bbc565b9050919050565b60006020820190508181036000830152610e3681610c22565b9050919050565b60006020820190508181036000830152610e5681610c62565b9050919050565b60006020820190508181036000830152610e7681610ca2565b9050919050565b60006020820190508181036000830152610e9681610ce2565b9050919050565b6000602082019050610eb26000830184610d22565b92915050565b600081519050919050565b600082825260208201905092915050565b6000610edf82610f68565b9150610eea83610f68565b9250827fffffffffffffffffffffffffffffffffffffffffffffffffffffffffffffffff03821115610f1f57610f1e61100e565b5b828201905092915050565b6000610f3582610f48565b9050919050565b60008115159050919050565b600073ffffffffffffffffffffffffffffffffffffffff82169050919050565b6000819050919050565b600060ff82169050919050565b60005b83811015610f9d578082015181840152602081019050610f82565b83811115610fac576000848401525b50505050565b60006002820490506001821680610fca57607f821691505b60208210811415610fde57610fdd61103d565b5b50919050565b6000610fef82610f72565b915060ff8214156110035761100261100e565b5b600182019050919050565b7f4e487b7100000000000000000000000000000000000000000000000000000000600052601160045260246000fd5b7f4e487b7100000000000000000000000000000000000000000000000000000000600052602260045260246000fd5b6000601f19601f8301169050919050565b61108681610f2a565b811461109157600080fd5b50565b61109d81610f68565b81146110a857600080fd5b50565b6110b481610f72565b81146110bf57600080fd5b5056fea2646970667358221220551b0093784fc935a027b437cc1718a4aca5e67bddc9764be42150a152451f1e64736f6c63430008000033",
  "immutableReferences": {},
  "source": "// SPDX-License-Identifier: MIT\r\npragma solidity ^0.8.0;\r\n\r\ncontract Voting {\r\n    struct Voter {\r\n        bool isRegistered;\r\n        bool hasVoted;\r\n        uint8 vote; // index of the candidate voted for\r\n    }\r\n\r\n\r\n    struct Candidate {\r\n        string name;\r\n        uint256 voteCount;\r\n    }\r\n\r\n    address public owner;\r\n    mapping(address => Voter) public voters;\r\n    Candidate[] public candidates;\r\n    bool public votingEnded;\r\n\r\n    modifier onlyOwner() {\r\n        require(msg.sender == owner, \"Only owner can call this function\");\r\n        _;\r\n    }\r\n\r\n    modifier hasNotVoted() {\r\n        require(!voters[msg.sender].hasVoted, \"You have already voted\");\r\n        _;\r\n    }\r\n\r\n    modifier isRegistered() {\r\n        require(voters[msg.sender].isRegistered, \"You are not registered to vote\");\r\n        _;\r\n    }\r\n\r\n    modifier votingActive() {\r\n        require(!votingEnded, \"Voting has ended\");\r\n        _;\r\n    }\r\n\r\n    constructor(string[] memory candidateNames) {\r\n        owner = msg.sender;\r\n        for (uint256 i = 0; i < candidateNames.length; i++) {\r\n            candidates.push(Candidate({\r\n                name: candidateNames[i],\r\n                voteCount: 0\r\n            }));\r\n        }\r\n    }\r\n\r\n    function getCandidateCount() public view returns (uint256) {\r\n        return candidates.length;\r\n    }\r\n\r\n    function registerVoter(address voter) public {\r\n        voters[voter].isRegistered = true;\r\n    }\r\n\r\n    function vote(uint8 candidateIndex) public isRegistered hasNotVoted votingActive {\r\n        require(candidateIndex < candidates.length, \"Invalid candidate index\");\r\n        voters[msg.sender].hasVoted = true;\r\n        voters[msg.sender].vote = candidateIndex;\r\n        candidates[candidateIndex].voteCount += 1;\r\n    }\r\n\r\n    function endVoting() public onlyOwner {\r\n        votingEnded = true;\r\n    }\r\n\r\n    function getCandidate(uint8 index) public view returns (string memory name, uint256 voteCount) {\r\n        require(index < candidates.length, \"Invalid candidate index\");\r\n        Candidate storage candidate = candidates[index];\r\n        return (candidate.name, candidate.voteCount);\r\n    }\r\n\r\n    function getWinner() public view returns (string memory winnerName, uint256 winnerVoteCount) {\r\n        require(votingEnded, \"Voting is still ongoing\");\r\n        uint256 winningVoteCount = 0;\r\n        uint8 winningCandidateIndex = 0;\r\n        for (uint8 i = 0; i < candidates.length; i++) {\r\n            if (candidates[i].voteCount > winningVoteCount) {\r\n                winningVoteCount = candidates[i].voteCount;\r\n                winningCandidateIndex = i;\r\n            }\r\n        }\r\n        return (candidates[winningCandidateIndex].name, winningVoteCount);\r\n    }\r\n}\r\n",
  "sourcePath": "C:\\Users\\Juanes\\Desktop\\Personal\\VOTACION\\votacion_electronica_back\\contracts\\Voting.sol",
  "compiler": {
    "name": "solc",
    "version": "0.8.0+commit.c7dfd78e.Emscripten.clang"
  },
  "schemaVersion": "3.4.16",
  "updatedAt": "2024-05-18T12:48:51.891Z",
  "networkType": "ethereum",
  "devdoc": {
    "kind": "dev",
    "methods": {},
    "version": 1
  },
  "userdoc": {
    "kind": "user",
    "methods": {},
    "version": 1
  }
}