{
  "contractName": "Voting",
  "abi": [
    {
      "inputs": [
        {
          "internalType": "string[]",
          "name": "candidateNames",
          "type": "string[]"
        }
      ],
      "stateMutability": "nonpayable",
      "type": "constructor"
    },
    {
      "inputs": [
        {
          "internalType": "uint256",
          "name": "",
          "type": "uint256"
        }
      ],
      "name": "candidates",
      "outputs": [
        {
          "internalType": "string",
          "name": "name",
          "type": "string"
        },
        {
          "internalType": "uint256",
          "name": "voteCount",
          "type": "uint256"
        }
      ],
      "stateMutability": "view",
      "type": "function",
      "constant": true
    },
    {
      "inputs": [],
      "name": "owner",
      "outputs": [
        {
          "internalType": "address",
          "name": "",
          "type": "address"
        }
      ],
      "stateMutability": "view",
      "type": "function",
      "constant": true
    },
    {
      "inputs": [
        {
          "internalType": "address",
          "name": "",
          "type": "address"
        }
      ],
      "name": "voters",
      "outputs": [
        {
          "internalType": "bool",
          "name": "isRegistered",
          "type": "bool"
        },
        {
          "internalType": "bool",
          "name": "hasVoted",
          "type": "bool"
        },
        {
          "internalType": "uint8",
          "name": "vote",
          "type": "uint8"
        }
      ],
      "stateMutability": "view",
      "type": "function",
      "constant": true
    },
    {
      "inputs": [],
      "name": "votingEnded",
      "outputs": [
        {
          "internalType": "bool",
          "name": "",
          "type": "bool"
        }
      ],
      "stateMutability": "view",
      "type": "function",
      "constant": true
    },
    {
      "inputs": [],
      "name": "votingStarted",
      "outputs": [
        {
          "internalType": "bool",
          "name": "",
          "type": "bool"
        }
      ],
      "stateMutability": "view",
      "type": "function",
      "constant": true
    },
    {
      "inputs": [
        {
          "internalType": "string",
          "name": "searchString",
          "type": "string"
        }
      ],
      "name": "stringExists",
      "outputs": [
        {
          "internalType": "bool",
          "name": "",
          "type": "bool"
        }
      ],
      "stateMutability": "view",
      "type": "function",
      "constant": true
    },
    {
      "inputs": [
        {
          "internalType": "address",
          "name": "voter",
          "type": "address"
        }
      ],
      "name": "registerVoter",
      "outputs": [],
      "stateMutability": "nonpayable",
      "type": "function"
    },
    {
      "inputs": [
        {
          "internalType": "uint8",
          "name": "candidateIndex",
          "type": "uint8"
        },
        {
          "internalType": "string",
          "name": "document",
          "type": "string"
        }
      ],
      "name": "vote",
      "outputs": [],
      "stateMutability": "nonpayable",
      "type": "function"
    },
    {
      "inputs": [],
      "name": "startVoting",
      "outputs": [],
      "stateMutability": "nonpayable",
      "type": "function"
    },
    {
      "inputs": [],
      "name": "endVoting",
      "outputs": [],
      "stateMutability": "nonpayable",
      "type": "function"
    },
    {
      "inputs": [],
      "name": "getCandidateCount",
      "outputs": [
        {
          "internalType": "uint256",
          "name": "",
          "type": "uint256"
        }
      ],
      "stateMutability": "view",
      "type": "function",
      "constant": true
    },
    {
      "inputs": [
        {
          "internalType": "uint8",
          "name": "index",
          "type": "uint8"
        }
      ],
      "name": "getCandidate",
      "outputs": [
        {
          "internalType": "string",
          "name": "name",
          "type": "string"
        },
        {
          "internalType": "uint256",
          "name": "voteCount",
          "type": "uint256"
        }
      ],
      "stateMutability": "view",
      "type": "function",
      "constant": true
    },
    {
      "inputs": [],
      "name": "getWinner",
      "outputs": [
        {
          "internalType": "string",
          "name": "winnerName",
          "type": "string"
        },
        {
          "internalType": "uint256",
          "name": "winnerVoteCount",
          "type": "uint256"
        }
      ],
      "stateMutability": "view",
      "type": "function",
      "constant": true
    }
  ],
  "bytecode": "0x60806040526000600460006101000a81548160ff0219169083151502179055506000600460016101000a81548160ff0219169083151502179055503480156200004757600080fd5b5060405162001ed738038062001ed783398181016040528101906200006d919062000339565b336000806101000a81548173ffffffffffffffffffffffffffffffffffffffff021916908373ffffffffffffffffffffffffffffffffffffffff16021790555060005b81518110156200017d576002604051806040016040528084848151811062000101577f4e487b7100000000000000000000000000000000000000000000000000000000600052603260045260246000fd5b602002602001015181526020016000815250908060018154018082558091505060019003906000526020600020906002020160009091909190915060008201518160000190805190602001906200015a92919062000185565b50602082015181600101555050808062000174906200048a565b915050620000b0565b505062000565565b828054620001939062000454565b90600052602060002090601f016020900481019282620001b7576000855562000203565b82601f10620001d257805160ff191683800117855562000203565b8280016001018555821562000203579182015b8281111562000202578251825591602001919060010190620001e5565b5b50905062000212919062000216565b5090565b5b808211156200023157600081600090555060010162000217565b5090565b60006200024c6200024684620003b2565b6200037e565b9050808382526020820190508260005b858110156200029057815185016200027588826200030c565b8452602084019350602083019250506001810190506200025c565b5050509392505050565b6000620002b1620002ab84620003e1565b6200037e565b905082815260208101848484011115620002ca57600080fd5b620002d78482856200041e565b509392505050565b600082601f830112620002f157600080fd5b81516200030384826020860162000235565b91505092915050565b600082601f8301126200031e57600080fd5b8151620003308482602086016200029a565b91505092915050565b6000602082840312156200034c57600080fd5b600082015167ffffffffffffffff8111156200036757600080fd5b6200037584828501620002df565b91505092915050565b6000604051905081810181811067ffffffffffffffff82111715620003a857620003a762000536565b5b8060405250919050565b600067ffffffffffffffff821115620003d057620003cf62000536565b5b602082029050602081019050919050565b600067ffffffffffffffff821115620003ff57620003fe62000536565b5b601f19601f8301169050602081019050919050565b6000819050919050565b60005b838110156200043e57808201518184015260208101905062000421565b838111156200044e576000848401525b50505050565b600060028204905060018216806200046d57607f821691505b6020821081141562000484576200048362000507565b5b50919050565b6000620004978262000414565b91507fffffffffffffffffffffffffffffffffffffffffffffffffffffffffffffffff821415620004cd57620004cc620004d8565b5b600182019050919050565b7f4e487b7100000000000000000000000000000000000000000000000000000000600052601160045260246000fd5b7f4e487b7100000000000000000000000000000000000000000000000000000000600052602260045260246000fd5b7f4e487b7100000000000000000000000000000000000000000000000000000000600052604160045260246000fd5b61196280620005756000396000f3fe608060405234801561001057600080fd5b50600436106100cf5760003560e01c80638da5cb5b1161008c578063a3ec138d11610066578063a3ec138d146101f2578063b224c40a14610224578063c3403ddf14610240578063cde9370f1461024a576100cf565b80638da5cb5b146101975780638e7ea5b2146101b55780639d5a0529146101d4576100cf565b806312d58635146100d45780631ec6b60a1461010457806330a563471461010e5780633477ee2e1461012c57806338db6dd31461015d57806383d948b714610179575b600080fd5b6100ee60048036038101906100e99190610f7c565b61027b565b6040516100fb919061145d565b60405180910390f35b61010c61034f565b005b61011661044a565b60405161012391906115ff565b60405180910390f35b61014660048036038101906101419190610fbd565b610457565b6040516101549291906114af565b60405180910390f35b61017760048036038101906101729190610f53565b610513565b005b610181610570565b60405161018e919061145d565b60405180910390f35b61019f610583565b6040516101ac9190611442565b60405180910390f35b6101bd6105a7565b6040516101cb9291906114af565b60405180910390f35b6101dc6107b4565b6040516101e9919061145d565b60405180910390f35b61020c60048036038101906102079190610f53565b6107c7565b60405161021b93929190611478565b60405180910390f35b61023e6004803603810190610239919061100f565b610818565b005b610248610b83565b005b610264600480360381019061025f9190610fe6565b610ccd565b6040516102729291906114af565b60405180910390f35b600080600090505b60038054905081101561034457826040516020016102a19190611414565b60405160208183030381529060405280519060200120600382815481106102f1577f4e487b7100000000000000000000000000000000000000000000000000000000600052603260045260246000fd5b9060005260206000200160405160200161030b919061142b565b60405160208183030381529060405280519060200120141561033157600191505061034a565b808061033c906117d6565b915050610283565b50600090505b919050565b60008054906101000a900473ffffffffffffffffffffffffffffffffffffffff1673ffffffffffffffffffffffffffffffffffffffff163373ffffffffffffffffffffffffffffffffffffffff16146103dd576040517f08c379a00000000000000000000000000000000000000000000000000000000081526004016103d4906114ff565b60405180910390fd5b600460009054906101000a900460ff161561042d576040517f08c379a00000000000000000000000000000000000000000000000000000000081526004016104249061151f565b60405180910390fd5b6001600460006101000a81548160ff021916908315150217905550565b6000600280549050905090565b6002818154811061046757600080fd5b906000526020600020906002020160009150905080600001805461048a906117a4565b80601f01602080910402602001604051908101604052809291908181526020018280546104b6906117a4565b80156105035780601f106104d857610100808354040283529160200191610503565b820191906000526020600020905b8154815290600101906020018083116104e657829003601f168201915b5050505050908060010154905082565b60018060008373ffffffffffffffffffffffffffffffffffffffff1673ffffffffffffffffffffffffffffffffffffffff16815260200190815260200160002060000160006101000a81548160ff02191690831515021790555050565b600460009054906101000a900460ff1681565b60008054906101000a900473ffffffffffffffffffffffffffffffffffffffff1681565b60606000600460019054906101000a900460ff166105fa576040517f08c379a00000000000000000000000000000000000000000000000000000000081526004016105f1906114df565b60405180910390fd5b60008060005b6002805490508160ff1610156106ce578260028260ff168154811061064e577f4e487b7100000000000000000000000000000000000000000000000000000000600052603260045260246000fd5b90600052602060002090600202016001015411156106bb5760028160ff16815481106106a3577f4e487b7100000000000000000000000000000000000000000000000000000000600052603260045260246000fd5b90600052602060002090600202016001015492508091505b80806106c69061181f565b915050610600565b5060028160ff168154811061070c577f4e487b7100000000000000000000000000000000000000000000000000000000600052603260045260246000fd5b90600052602060002090600202016000018281805461072a906117a4565b80601f0160208091040260200160405190810160405280929190818152602001828054610756906117a4565b80156107a35780601f10610778576101008083540402835291602001916107a3565b820191906000526020600020905b81548152906001019060200180831161078657829003601f168201915b505050505091509350935050509091565b600460019054906101000a900460ff1681565b60016020528060005260406000206000915090508060000160009054906101000a900460ff16908060000160019054906101000a900460ff16908060000160029054906101000a900460ff16905083565b600160003373ffffffffffffffffffffffffffffffffffffffff1673ffffffffffffffffffffffffffffffffffffffff16815260200190815260200160002060000160009054906101000a900460ff166108a7576040517f08c379a000000000000000000000000000000000000000000000000000000000815260040161089e9061155f565b60405180910390fd5b600460019054906101000a900460ff16156108f7576040517f08c379a00000000000000000000000000000000000000000000000000000000081526004016108ee9061159f565b60405180910390fd5b600460009054906101000a900460ff16610946576040517f08c379a000000000000000000000000000000000000000000000000000000000815260040161093d9061153f565b60405180910390fd5b600460009054906101000a900460ff16610995576040517f08c379a000000000000000000000000000000000000000000000000000000000815260040161098c9061153f565b60405180910390fd5b61099e8161027b565b156109de576040517f08c379a00000000000000000000000000000000000000000000000000000000081526004016109d59061157f565b60405180910390fd5b6002805490508260ff1610610a28576040517f08c379a0000000000000000000000000000000000000000000000000000000008152600401610a1f906115bf565b60405180910390fd5b60018060003373ffffffffffffffffffffffffffffffffffffffff1673ffffffffffffffffffffffffffffffffffffffff16815260200190815260200160002060000160016101000a81548160ff02191690831515021790555081600160003373ffffffffffffffffffffffffffffffffffffffff1673ffffffffffffffffffffffffffffffffffffffff16815260200190815260200160002060000160026101000a81548160ff021916908360ff160217905550600381908060018154018082558091505060019003906000526020600020016000909190919091509080519060200190610b18929190610e09565b50600160028360ff1681548110610b58577f4e487b7100000000000000000000000000000000000000000000000000000000600052603260045260246000fd5b90600052602060002090600202016001016000828254610b7891906116b7565b925050819055505050565b60008054906101000a900473ffffffffffffffffffffffffffffffffffffffff1673ffffffffffffffffffffffffffffffffffffffff163373ffffffffffffffffffffffffffffffffffffffff1614610c11576040517f08c379a0000000000000000000000000000000000000000000000000000000008152600401610c08906114ff565b60405180910390fd5b600460009054906101000a900460ff16610c60576040517f08c379a0000000000000000000000000000000000000000000000000000000008152600401610c579061153f565b60405180910390fd5b600460019054906101000a900460ff1615610cb0576040517f08c379a0000000000000000000000000000000000000000000000000000000008152600401610ca7906115df565b60405180910390fd5b6001600460016101000a81548160ff021916908315150217905550565b606060006002805490508360ff1610610d1b576040517f08c379a0000000000000000000000000000000000000000000000000000000008152600401610d12906115bf565b60405180910390fd5b600060028460ff1681548110610d5a577f4e487b7100000000000000000000000000000000000000000000000000000000600052603260045260246000fd5b90600052602060002090600202019050806000018160010154818054610d7f906117a4565b80601f0160208091040260200160405190810160405280929190818152602001828054610dab906117a4565b8015610df85780601f10610dcd57610100808354040283529160200191610df8565b820191906000526020600020905b815481529060010190602001808311610ddb57829003601f168201915b505050505091509250925050915091565b828054610e15906117a4565b90600052602060002090601f016020900481019282610e375760008555610e7e565b82601f10610e5057805160ff1916838001178555610e7e565b82800160010185558215610e7e579182015b82811115610e7d578251825591602001919060010190610e62565b5b509050610e8b9190610e8f565b5090565b5b80821115610ea8576000816000905550600101610e90565b5090565b6000610ebf610eba8461164b565b61161a565b905082815260208101848484011115610ed757600080fd5b610ee2848285611762565b509392505050565b600081359050610ef9816118e7565b92915050565b600082601f830112610f1057600080fd5b8135610f20848260208601610eac565b91505092915050565b600081359050610f38816118fe565b92915050565b600081359050610f4d81611915565b92915050565b600060208284031215610f6557600080fd5b6000610f7384828501610eea565b91505092915050565b600060208284031215610f8e57600080fd5b600082013567ffffffffffffffff811115610fa857600080fd5b610fb484828501610eff565b91505092915050565b600060208284031215610fcf57600080fd5b6000610fdd84828501610f29565b91505092915050565b600060208284031215610ff857600080fd5b600061100684828501610f3e565b91505092915050565b6000806040838503121561102257600080fd5b600061103085828601610f3e565b925050602083013567ffffffffffffffff81111561104d57600080fd5b61105985828601610eff565b9150509250929050565b61106c8161170d565b82525050565b61107b8161171f565b82525050565b600061108c82611690565b611096818561169b565b93506110a6818560208601611771565b6110af816118d6565b840191505092915050565b60006110c582611690565b6110cf81856116ac565b93506110df818560208601611771565b80840191505092915050565b600081546110f8816117a4565b61110281866116ac565b9450600182166000811461111d576001811461112e57611161565b60ff19831686528186019350611161565b6111378561167b565b60005b838110156111595781548189015260018201915060208101905061113a565b838801955050505b50505092915050565b600061117760178361169b565b91507f566f74696e67206973207374696c6c206f6e676f696e670000000000000000006000830152602082019050919050565b60006111b760218361169b565b91507f4f6e6c79206f776e65722063616e2063616c6c20746869732066756e6374696f60008301527f6e000000000000000000000000000000000000000000000000000000000000006020830152604082019050919050565b600061121d60128361169b565b91507f566f74696e6720686173207374617274656400000000000000000000000000006000830152602082019050919050565b600061125d60168361169b565b91507f566f74696e6720686173206e6f742073746172746564000000000000000000006000830152602082019050919050565b600061129d601e8361169b565b91507f596f7520617265206e6f74207265676973746572656420746f20766f746500006000830152602082019050919050565b60006112dd602a8361169b565b91507f4120766f746520686173206265656e20656d697474656420776974682074686960008301527f7320646f63756d656e74000000000000000000000000000000000000000000006020830152604082019050919050565b600061134360108361169b565b91507f566f74696e672068617320656e646564000000000000000000000000000000006000830152602082019050919050565b600061138360178361169b565b91507f496e76616c69642063616e64696461746520696e6465780000000000000000006000830152602082019050919050565b60006113c360188361169b565b91507f566f74696e672068617320616c726561647920656e64656400000000000000006000830152602082019050919050565b6113ff8161174b565b82525050565b61140e81611755565b82525050565b600061142082846110ba565b915081905092915050565b600061143782846110eb565b915081905092915050565b60006020820190506114576000830184611063565b92915050565b60006020820190506114726000830184611072565b92915050565b600060608201905061148d6000830186611072565b61149a6020830185611072565b6114a76040830184611405565b949350505050565b600060408201905081810360008301526114c98185611081565b90506114d860208301846113f6565b9392505050565b600060208201905081810360008301526114f88161116a565b9050919050565b60006020820190508181036000830152611518816111aa565b9050919050565b6000602082019050818103600083015261153881611210565b9050919050565b6000602082019050818103600083015261155881611250565b9050919050565b6000602082019050818103600083015261157881611290565b9050919050565b60006020820190508181036000830152611598816112d0565b9050919050565b600060208201905081810360008301526115b881611336565b9050919050565b600060208201905081810360008301526115d881611376565b9050919050565b600060208201905081810360008301526115f8816113b6565b9050919050565b600060208201905061161460008301846113f6565b92915050565b6000604051905081810181811067ffffffffffffffff82111715611641576116406118a7565b5b8060405250919050565b600067ffffffffffffffff821115611666576116656118a7565b5b601f19601f8301169050602081019050919050565b60008190508160005260206000209050919050565b600081519050919050565b600082825260208201905092915050565b600081905092915050565b60006116c28261174b565b91506116cd8361174b565b9250827fffffffffffffffffffffffffffffffffffffffffffffffffffffffffffffffff0382111561170257611701611849565b5b828201905092915050565b60006117188261172b565b9050919050565b60008115159050919050565b600073ffffffffffffffffffffffffffffffffffffffff82169050919050565b6000819050919050565b600060ff82169050919050565b82818337600083830152505050565b60005b8381101561178f578082015181840152602081019050611774565b8381111561179e576000848401525b50505050565b600060028204905060018216806117bc57607f821691505b602082108114156117d0576117cf611878565b5b50919050565b60006117e18261174b565b91507fffffffffffffffffffffffffffffffffffffffffffffffffffffffffffffffff82141561181457611813611849565b5b600182019050919050565b600061182a82611755565b915060ff82141561183e5761183d611849565b5b600182019050919050565b7f4e487b7100000000000000000000000000000000000000000000000000000000600052601160045260246000fd5b7f4e487b7100000000000000000000000000000000000000000000000000000000600052602260045260246000fd5b7f4e487b7100000000000000000000000000000000000000000000000000000000600052604160045260246000fd5b6000601f19601f8301169050919050565b6118f08161170d565b81146118fb57600080fd5b50565b6119078161174b565b811461191257600080fd5b50565b61191e81611755565b811461192957600080fd5b5056fea264697066735822122069f0ace53da6abca9855dba504a526603b28c17fc3a7cb0288925f73c1d331e364736f6c63430008000033",
  "immutableReferences": {},
  "source": "// SPDX-License-Identifier: MIT\r\npragma solidity ^0.8.0;\r\n\r\ncontract Voting {\r\n    struct Voter {\r\n        bool isRegistered;\r\n        bool hasVoted;\r\n        uint8 vote; // index of the candidate voted for\r\n    }\r\n\r\n\r\n    struct Candidate {\r\n        string name;\r\n        uint256 voteCount;\r\n    }\r\n\r\n    address public owner;\r\n    mapping(address => Voter) public voters;\r\n    Candidate[] public candidates;\r\n    string[] private docs;\r\n    bool public votingStarted = false;\r\n    bool public votingEnded = false;\r\n\r\n    modifier onlyOwner() {\r\n        require(msg.sender == owner, \"Only owner can call this function\");\r\n        _;\r\n    }\r\n\r\n    modifier isRegistered() {\r\n        require(voters[msg.sender].isRegistered, \"You are not registered to vote\");\r\n        _;\r\n    }\r\n\r\n    modifier votingActive() {\r\n        require(!votingEnded, \"Voting has ended\");\r\n        require(votingStarted, \"Voting has not started\");\r\n        _;\r\n    }\r\n\r\n    constructor(string[] memory candidateNames) {\r\n        owner = msg.sender;\r\n        for (uint256 i = 0; i < candidateNames.length; i++) {\r\n            candidates.push(Candidate({\r\n                name: candidateNames[i],\r\n                voteCount: 0\r\n            }));\r\n        }\r\n    }\r\n\r\n    function stringExists(string memory searchString) public view returns (bool) {\r\n        for (uint i = 0; i < docs.length; i++) {\r\n            if (keccak256(abi.encodePacked(docs[i])) == keccak256(abi.encodePacked(searchString))) {\r\n                return true;\r\n            }\r\n        }\r\n        return false;\r\n    }\r\n\r\n    function registerVoter(address voter) public {\r\n        voters[voter].isRegistered = true;\r\n    }\r\n\r\n    function vote(uint8 candidateIndex, string memory document) public isRegistered votingActive {\r\n        require(votingStarted, \"Voting has not started\");\r\n        require(!stringExists(document), \"A vote has been emitted with this document\");\r\n        require(candidateIndex < candidates.length, \"Invalid candidate index\");\r\n        voters[msg.sender].hasVoted = true;\r\n        voters[msg.sender].vote = candidateIndex;\r\n        docs.push(document);\r\n        candidates[candidateIndex].voteCount += 1;\r\n    }\r\n\r\n    function startVoting() public onlyOwner {\r\n        require(!votingStarted, \"Voting has started\");\r\n        votingStarted = true;\r\n    }\r\n\r\n    function endVoting() public onlyOwner {\r\n        require(votingStarted, \"Voting has not started\");\r\n        require(!votingEnded, \"Voting has already ended\");\r\n        votingEnded = true;\r\n    }\r\n\r\n    function getCandidateCount() public view returns (uint256) {\r\n        return candidates.length;\r\n    }\r\n\r\n    function getCandidate(uint8 index) public view returns (string memory name, uint256 voteCount) {\r\n        require(index < candidates.length, \"Invalid candidate index\");\r\n        Candidate storage candidate = candidates[index];\r\n        return (candidate.name, candidate.voteCount);\r\n    }\r\n\r\n    function getWinner() public view returns (string memory winnerName, uint256 winnerVoteCount) {\r\n\r\n        require(votingEnded, \"Voting is still ongoing\");\r\n        uint256 winningVoteCount = 0;\r\n        uint8 winningCandidateIndex = 0;\r\n        for (uint8 i = 0; i < candidates.length; i++) {\r\n            if (candidates[i].voteCount > winningVoteCount) {\r\n                winningVoteCount = candidates[i].voteCount;\r\n                winningCandidateIndex = i;\r\n            }\r\n        }\r\n        return (candidates[winningCandidateIndex].name, winningVoteCount);\r\n    }\r\n}\r\n",
  "sourcePath": "C:\\Users\\Juanes\\Desktop\\Personal\\VOTACION\\votacion_electronica_back\\contracts\\Voting.sol",
  "compiler": {
    "name": "solc",
    "version": "0.8.0+commit.c7dfd78e.Emscripten.clang"
  },
  "schemaVersion": "3.4.16",
  "updatedAt": "2024-05-24T04:41:38.026Z",
  "networkType": "ethereum",
  "devdoc": {
    "kind": "dev",
    "methods": {},
    "version": 1
  },
  "userdoc": {
    "kind": "user",
    "methods": {},
    "version": 1
  }
}